S00D00004C434420342E73726563F0
S11300000C942A000C9447000C9447000C9447006D
S11300100C9447000C9447000C9447000C94470040
S11300200C9447000C9447000C9447000C94470030
S11300300C9447000C9447000C9447000C94470020
S11300400C9447000C9447000C9447000C94470010
S11300500C94470011241FBECFE5D8E0DEBFCDBF0E
S113006010E0A0E6B0E0EAE4F8E002C005900D92EA
S1130070AC37B107D9F710E0ACE7B0E001C01D928E
S1130080AC37B107E1F70E94DD030C9423040C9410
S113009000006115710509F0A0C0009711F4D8980B
S11300A008958130910511F4D9980895823091050D
S11300B011F4DA9808958330910511F4DB980895CA
S11300C08430910511F4DC9808958530910511F47C
S11300D0DD9808958630910511F4DE9808958730EF
S11300E0910511F4DF9808958A30910511F4C098B0
S11300F008958B30910511F4C19808958C309105C1
S113010011F4C29808958D30910511F4C39808959F
S11301108E30910511F4C49808958F30910511F42F
S1130120C59808958031910511F4C69808958131D8
S1130130910511F4C79808958431910511F4A89894
S113014008958531910511F4A99808958631910592
S113015011F4AA9808958731910511F4AB98089584
S11301608831910511F4AC9808958931910511F401
S1130170AD9808958A31910511F4AE9808958B31A4
S1130180910511F4AF9808958E31910511F490986A
S113019008958F31910511F4919808958032910555
S11301A011F4929808958132910511F49398089569
S11301B08232910511F4949808958332910511F4D3
S11301C0959808958432910511F49698089585328E
S11301D0910509F0A0C097980895009711F4D89A52
S11301E008958130910511F4D99A089582309105CA
S11301F011F4DA9A08958330910511F4DB9A089585
S11302008430910511F4DC9A08958530910511F438
S1130210DD9A08958630910511F4DE9A08958730A9
S1130220910511F4DF9A08958A30910511F4C09A6A
S113023008958B30910511F4C19A08958C3091057D
S113024011F4C29A08958D30910511F4C39A08955A
S11302508E30910511F4C49A08958F30910511F4EC
S1130260C59A08958031910511F4C69A0895813193
S1130270910511F4C79A08958431910511F4A89A4F
S113028008958531910511F4A99A0895863191054F
S113029011F4AA9A08958731910511F4AB9A08953F
S11302A08831910511F4AC9A08958931910511F4BE
S11302B0AD9A08958A31910511F4AE9A08958B315F
S11302C0910511F4AF9A08958E31910511F4909A25
S11302D008958F31910511F4919A08958032910512
S11302E011F4929A08958132910511F4939A089524
S11302F08232910511F4949A08958332910511F490
S1130300959A08958432910511F4969A0895853248
S1130310910509F4979A0895CF93DF93D82FC82FA6
S113032080FF07C080E090E061E070E00E94490037
S113033006C080E090E060E070E00E944900C1FFE8
S113034007C081E090E061E070E00E94490006C0CF
S113035081E090E060E070E00E944900C2FF07C0C5
S113036082E090E061E070E00E94490006C082E013
S113037090E060E070E00E944900C3FF07C083E0A2
S113038090E061E070E00E94490006C083E090E0E4
S113039060E070E00E944900C4FF07C082E290E080
S11303A061E070E00E94490006C082E290E060E0F3
S11303B070E00E944900C5FF07C083E290E061E05D
S11303C070E00E94490006C083E290E060E070E0C3
S11303D00E944900C6FF07C084E290E061E070E03B
S11303E00E94490006C084E290E060E070E00E9450
S11303F04900DD233CF485E290E061E070E00E9476
S1130400490006C085E290E060E070E00E94490087
S1130410DF91CF910895CF93C82F8AE190E060E0F7
S113042070E00E9449008C2F0E948C018BE190E0C7
S113043061E070E00E9449008FE99FE00197F1F7C5
S113044000C000008BE190E060E070E00E94490091
S11304508FE99FE00197F1F700C00000CF91089564
S113046081E00E940B020895813029F4862F805880
S11304700E940B020895823021F4862F80540E943A
S11304800B0208958AE190E060E070E00E94490068
S11304908BE190E060E070E00E9449008FEF99EFFB
S11304A0A0E081509040A040E1F700C0000080E34C
S11304B00E940B02AFE1BEE41197F1F700C0000007
S11304C080E30E940B028FE99FE00197F1F700C0DF
S11304D0000080E30E940B02AFE3BCE91197F1F73F
S11304E000C0000088E30E940B028CE00E940B0213
S11304F081E00E940B0286E00E940B020895CF93D4
S1130500C82F8AE190E061E070E00E9449008C2FDE
S11305100E948C018BE190E061E070E00E94490050
S11305208FE99FE00197F1F700C000008BE190E0B4
S113053060E070E00E9449008FE99FE00197F1F7C5
S113054000C00000CF910895CF93DF93EC01888120
S1130550882331F021960E947F0289918823D9F75C
S1130560DF91CF9108958CE10E940B02089588E1F8
S11305700E940B020895CF93DF93C82F80FF07C01A
S113058082E290E061E070E00E94490006C082E2ED
S113059090E060E070E00E944900C1FF07C083E280
S11305A090E061E070E00E94490006C083E290E0C0
S11305B060E070E00E944900C2FF07C084E290E05E
S11305C061E070E00E94490006C084E290E060E0CF
S11305D070E00E944900C3FF07C085E290E061E03B
S11305E070E00E94490006C085E290E060E070E09F
S11305F00E944900DF91CF910895CF93C82F8AE1DB
S113060090E060E070E00E9449008C2F0E94BB02E1
S11306108BE190E061E070E00E9449008FE99FE087
S11306200197F1F700C000008BE190E060E070E01A
S11306300E9449008FE99FE00197F1F700C0000094
S1130640CF91089580E00E94FD0281E00E94FD02A6
S11306500895CF93C62F813059F4862F8058829500
S11306608F700E94FD028C2F8F700E94FD020CC0BF
S1130670823051F4862F805882958F700E94FD023B
S11306808C2F8F700E94FD02CF91089580E00E940C
S1130690BB028FEF99EFA0E081509040A040E1F7BA
S11306A000C0000083E00E94FD02AFE1BEE41197A8
S11306B0F1F700C0000083E00E94FD028FED9BEA89
S11306C00197F1F700C0000083E00E94FD0282E080
S11306D00E94FD0282E00E94FD0288E00E94FD0269
S11306E080E00E94FD028CE00E94FD0280E00E94F6
S11306F0FD0286E00E94FD020895CF93C82F8AE18F
S113070090E061E070E00E9449008C2F82958F7028
S11307100E94BB028BE190E061E070E00E9449001E
S11307208FE99FE00197F1F700C000008BE190E0B2
S113073060E070E00E9449008FE99FE00197F1F7C3
S113074000C000008C2F8F700E94BB028BE190E0F0
S113075061E070E00E9449008FE99FE00197F1F7A2
S113076000C000008BE190E060E070E00E9449006E
S11307708FE99FE00197F1F700C00000CF91089541
S1130780CF93DF93EC018881882331F021960E9476
S11307907D0389918823D9F7DF91CF91089581E072
S11307A00E94FD028CE00E94FD02089581E00E94F7
S11307B0FD0288E00E94FD0208958FEF81BB84BB97
S11307C00E9446030F2EF0E6EF2EF0E0FF2EF02DF0
S11307D00FE010E081E061E00E942903C7010E945C
S11307E0C003E8018FEF99E6A8E181509040A04052
S11307F0E1F700C000000E94D603219799F7E801B1
S11308008FEF99E6A8E181509040A040E1F700C045
S113081000000E94CF03219799F70E94220382E0EF
S113082061E00E94290385E60E947D0383E50E941E
S11308307D038FEF97EAA1E681509040A040E1F755
S10D084000C00000C7CFF894FFCFFA
S113084A656C656374726F536F6D65204C43442005
S10F085A48656C6C6F20576F726C640072
S9030000FC
