:100000000C9446000C945D000C945D000C945D0013
:100010000C945D000C945D000C945D000C945D00EC
:100020000C945D000C945D000C945D000C945D00DC
:100030000C945D000C945D000C945D000C945D00CC
:100040000C945D000C945D000C945D000C945D00BC
:100050000C945D000C945D000C945D000C945D00AC
:100060000C945D000C945D000C945D000C945D009C
:100070000C945D000C945D000C945D000C945D008C
:100080000C945D000C945D000C945D0011241FBE67
:10009000CFEFD0E1DEBFCDBF11E0A0E0B1E0E2E9FB
:1000A000F8E000E00BBF02C007900D92AC31B10741
:1000B000D9F70E94F6030C9447040C9400006115D4
:1000C000710509F0A0C0009711F4D8980895813007
:1000D000910511F4D99808958230910511F4DA98B8
:1000E00008958330910511F4DB98089584309105CB
:1000F00011F4DC9808958530910511F4DD98089588
:100100008630910511F4DE9808958730910511F439
:10011000DF9808958A30910511F4C09808958B30C6
:10012000910511F4C19808958C30910511F4C2988D
:1001300008958D30910511F4C39808958E3091057E
:1001400011F4C49808958F30910511F4C59808955D
:100150008031910511F4C69808958131910511F40B
:10016000C79808958431910511F4A89808958531B0
:10017000910511F4A99808958631910511F4AA9872
:1001800008958731910511F4AB9808958831910550
:1001900011F4AC9808958931910511F4AD98089542
:1001A0008A31910511F4AE9808958B31910511F4BF
:1001B000AF9808958E31910511F4909808958F317C
:1001C000910511F4919808958032910511F4929857
:1001D00008958132910511F4939808958232910522
:1001E00011F4949808958332910511F49598089527
:1001F0008432910511F4969808958532910509F09D
:10020000A0C097980895009711F4D89A0895813066
:10021000910511F4D99A08958230910511F4DA9A72
:1002200008958330910511F4DB9A08958430910587
:1002300011F4DC9A08958530910511F4DD9A089542
:100240008630910511F4DE9A08958730910511F4F6
:10025000DF9A08958A30910511F4C09A08958B3081
:10026000910511F4C19A08958C30910511F4C29A48
:1002700008958D30910511F4C39A08958E3091053B
:1002800011F4C49A08958F30910511F4C59A089518
:100290008031910511F4C69A08958131910511F4C8
:1002A000C79A08958431910511F4A89A089585316B
:1002B000910511F4A99A08958631910511F4AA9A2D
:1002C00008958731910511F4AB9A0895883191050D
:1002D00011F4AC9A08958931910511F4AD9A0895FD
:1002E0008A31910511F4AE9A08958B31910511F47C
:1002F000AF9A08958E31910511F4909A08958F3137
:10030000910511F4919A08958032910511F4929A11
:1003100008958132910511F4939A089582329105DE
:1003200011F4949A08958332910511F4959A0895E1
:100330008432910511F4969A08958532910509F455
:10034000979A08950F931F93082F182F80FF07C0C7
:1003500080E090E061E070E00E945F0006C080E015
:1003600090E060E070E00E945F0011FF07C081E054
:1003700090E061E070E00E945F0006C081E090E0E4
:1003800060E070E00E945F0012FF07C082E090E032
:1003900061E070E00E945F0006C082E090E060E0F3
:1003A00070E00E945F0013FF07C083E090E061E00F
:1003B00070E00E945F0006C083E090E060E070E0C3
:1003C0000E945F0014FF07C082E290E061E070E0ED
:1003D0000E945F0006C082E290E060E070E00E9450
:1003E0005F0015FF07C083E290E061E070E00E94CB
:1003F0005F0006C083E290E060E070E00E945F0072
:1004000016FF07C084E290E061E070E00E945F00A8
:1004100006C084E290E060E070E00E945F0000238C
:100420003CF485E290E061E070E00E945F0006C06D
:1004300085E290E060E070E00E945F001F910F9104
:1004400008951F93182F8AE190E060E070E00E9409
:100450005F00812F0E94A2018BE190E061E070E0DB
:100460000E945F008FE99FE00197F1F700C0000054
:100470008BE190E060E070E00E945F008FE99FE018
:100480000197F1F700C000001F91089581E00E94DC
:1004900021020895813029F4862F80580E9421027C
:1004A0000895823021F4862F80540E9421020895FD
:1004B0008AE190E060E070E00E945F008BE190E0F4
:1004C00060E070E00E945F008FEF99EFA0E0815044
:1004D0009040A040E1F700C0000080E30E942102AC
:1004E000AFE1BEE41197F1F700C0000080E30E9485
:1004F00021028FE99FE00197F1F700C0000080E33F
:100500000E942102AFE3BCE91197F1F700C000009F
:1005100088E30E9421028CE00E94210281E00E9477
:10052000210286E00E94210208951F93182F8AE17C
:1005300090E061E070E00E945F00812F0E94A201C4
:100540008BE190E061E070E00E945F008FE99FE046
:100550000197F1F700C000008BE190E060E070E0EF
:100560000E945F008FE99FE00197F1F700C0000053
:100570001F910895CF93DF93EC018881882331F098
:1005800021960E94950289918823D9F7DF91CF9116
:1005900008958CE10E942102089588E10E942102C1
:1005A0000895CF93DF93C82FD0E0CE0180FF07C01E
:1005B00082E290E061E070E00E945F0006C082E2AB
:1005C00090E060E070E00E945F00C1FF07C083E23E
:1005D00090E061E070E00E945F0006C083E290E07E
:1005E00060E070E00E945F00C2FF07C084E290E01C
:1005F00061E070E00E945F0006C084E290E060E08D
:1006000070E00E945F00C3FF07C085E290E061E0F8
:1006100070E00E945F0006C085E290E060E070E05C
:100620000E945F00DF91CF9108951F93182F8AE1F8
:1006300090E060E070E00E945F00812F0E94D10294
:100640008BE190E061E070E00E945F008FE99FE045
:100650000197F1F700C000008BE190E060E070E0EE
:100660000E945F008FE99FE00197F1F700C0000052
:100670001F91089580E00E94150381E00E941503F8
:1006800008951F93813061F4162F1058812F8295A1
:100690008F700E941503812F8F700E9415030DC06B
:1006A000823059F4162F1054812F82958F700E943A
:1006B0001503812F8F700E9415031F91089580E00C
:1006C0000E94D1028FEF99EFA0E081509040A040AE
:1006D000E1F700C0000083E00E941503AFE1BEE433
:1006E0001197F1F700C0000083E00E9415038FED21
:1006F0009BEA0197F1F700C0000083E00E94150318
:1007000082E00E94150382E00E94150388E00E94A7
:10071000150380E00E9415038CE00E94150380E021
:100720000E94150386E00E94150308951F93182F59
:100730008AE190E061E070E00E945F00812F829585
:100740008F700E94D1028BE190E061E070E00E9426
:100750005F008FE99FE00197F1F700C000008BE197
:1007600090E060E070E00E945F008FE99FE00197F9
:10077000F1F700C00000812F8F700E94D1028BE141
:1007800090E061E070E00E945F008FE99FE00197D8
:10079000F1F700C000008BE190E060E070E00E94A3
:1007A0005F008FE99FE00197F1F700C000001F9103
:1007B0000895CF93DF93EC018881882331F021964F
:1007C0000E94960389918823D9F7DF91CF910895EC
:1007D00081E00E9415038CE00E941503089581E0DA
:1007E0000E94150388E00E9415030895CF92DF92BE
:1007F000EF92FF920F931F93CF93DF938FEF81BB05
:1008000084BB0E945F0300E011E00F2EFFE0EF2E9B
:10081000FF24F02DCC24DD2481E061E00E9441031F
:10082000C8010E94D903E7018FEF99E6A8E1815042
:100830009040A040E1F700C000000E94EF03219724
:1008400099F7E6018FEF99E6A8E181509040A0402A
:10085000E1F700C000000E94E8032196CF30D105E7
:1008600089F70E943A0382E061E00E94410385E635
:100870000E94960383E50E9496038FEF97EAA1E614
:1008800081509040A040E1F700C00000C5CFF8942F
:02089000FFCF98
:10089200656C656374726F536F6D65204C434420C1
:0C08A20048656C6C6F20576F726C64002E
:00000001FF
