:100000000C949B050C94BA050C94BA050C94BA0593
:100010000C94BA050C94BA050C94BA050C94BA0564
:100020000C94BA050C94F20D0C94BA050C94BA0514
:100030000C94BA050C94BA050C94BA050C94BA0544
:100040000C94BA050C94BA050C94BA050C94BA0534
:100050000C94BA050C940D060C94BA050C94BA05D0
:100060000C94BA050C94BA050C94E70C0C94BA05E0
:100070000C94BA050C94BA050C94BA050C94BA0504
:100080000C94BA050C94BA050C94BA050000000053
:100090000000005F00000007000700147F147F14B9
:1000A000242A7F2A122313086462364955225000FD
:1000B00005030000001C2241000041221C00082A08
:1000C0001C2A0808083E08080050300000080808EC
:1000D0000808003030000020100804023E51494555
:1000E0003E00427F400042615149462141454B312B
:1000F0001814127F1027454545393C4A49493001BB
:10010000710905033649494936064949291E003611
:100110003600000056360000000814224114141462
:100120001414412214080002015109063249794190
:100130003E7E1111117E7F494949363E414141229F
:100140007F4141221C7F494949417F090901013E04
:10015000414151327F0808087F00417F4100204023
:10016000413F017F081422417F404040407F02040C
:10017000027F7F0408107F3E4141413E7F0909090B
:10018000063E4151215E7F091929464649494931B8
:1001900001017F01013F4040403F1F2040201F7F61
:1001A0002018207F6314081463030478040361514A
:1001B00049454300007F4141020408102041417F2E
:1001C00000000402010204404040404000010204DB
:1001D0000020545454787F484444383844444420E0
:1001E000384444487F3854545418087E09010208A2
:1001F0001454543C7F0804047800447D400020409F
:10020000443D00007F10284400417F40007C0418DA
:1002100004787C0804047838444444387C1414146A
:1002200008081414187C7C0804040848545454200A
:10023000043F4440203C4040207C1C2040201C3C8B
:100240004030403C44281028440C5050503C4464FA
:10025000544C44000836410000007F000000413645
:10026000080008082A1C08081C2A080880838689B8
:100270008C8F9295989C9FA2A5A8ABAEB0B3B6B94F
:10028000BCBFC1C4C7C9CCCED1D3D5D8DADCDEE07F
:10029000E2E4E6E8EAECEDEFF0F2F3F5F6F7F8F970
:1002A000FAFBFCFCFDFEFEFFFFFFFFFFFFFFFFFF71
:1002B000FFFFFEFEFDFCFCFBFAF9F8F7F6F5F3F2A2
:1002C000F0EFEDECEAE8E6E4E2E0DEDCDAD8D5D304
:1002D000D1CECCC9C7C4C1BFBCB9B6B3B0AEABA850
:1002E000A5A29F9C9895928F8C898683807C797635
:1002F00073706D6A6763605D5A5754514F4C49463D
:1003000043403E3B383633312E2C2A272523211FEC
:100310001D1B1917151312100F0D0C0A09080706DB
:1003200005040303020101000000000000000000BA
:10033000000001010203030405060708090A0C0D69
:100340000F1012131517191B1D1F212325272A2CE7
:100350002E313336383B3E404346494C4F5154577B
:100360005A5D6063676A6D707376797C000024F46F
:1003700073CB63AE9798A287127AF96EBA65E65D81
:10038000315761514B4CCE47D1433F40093D213A53
:100390007D371335DD32D430F32E362D992B182AC4
:1003A000B12861272626FE24E723E122E921FE2049
:1003B00020204D1F851EC61D101D631CBE1B201B4B
:1003C000891AF9196E19EA186A18EF177A170817B7
:1003D0009B163216CC156A150C15B114581403145B
:1003E000B01360131313C8127F123812F411B11135
:1003F00070113111F410B9107F1047101010DA0F7E
:10040000A60F740F420F120FE30EB50E880E5C0E8E
:10041000320E080EDF0DB70D900D6A0D450D200D43
:10042000FC0CD90CB70C960C750C550C350C160C35
:10043000F80BDA0BBD0BA00B840B690B4E0B330BC7
:10044000190BFF0AE60ACD0AB50A9D0A860A6F0A49
:10045000580A420A2C0A170A010AED09D809C409E8
:10046000B0099D0989097609640951093F092E09D6
:100470001C090B09FA08E908D808C808B808A80830
:10048000990889087A086B085C084E083F0831080B
:10049000230816080808FA07ED07E007D307C60780
:1004A000BA07AD07A107950789077D07710766079A
:1004B0005B074F07440739072E07230719070E0765
:1004C0000407FA06F006E606DC06D206C806BF06F2
:1004D000B506AC06A2069906900687067E06750646
:1004E0006D0664065C0653064B0643063A06320662
:1004F0002A062206350C250C160C070CF80BE90B06
:10050000DA0BCB0BBD0BAE0BA00B920B840B760B57
:10051000690B5B0B4E0B400B330B260B190B0C0BB3
:10052000FF0AF30AE60ADA0ACD0AC10AB50AA90ADD
:100530009D0A920A860A7A0A6F0A640A580A4D0AC4
:10054000420A370A2C0A210A170A0C0A010AF7097B
:10055000ED09E209D809CE09C409BA09B009A6090A
:100560009D0993098909800976096D0964095B0968
:10057000510948093F0936092E0925091C091309A3
:100580000B090209FA08F108E908E108D808D008BF
:10059000C808C008B808B008A808A00899089108B9
:1005A000890882087A0873086B0864085C08550893
:1005B0004E0847083F08380831082A0823081C0855
:1005C00016080F0808080108FA07F407ED07E707FF
:1005D000E007DA07D307CD07C607C007BA07B40795
:1005E000AD07A707A1079B0795078F078907830713
:1005F0007D07770771076C07660760075B0755077C
:100600004F074A0744073F07390734072E072907D2
:1006100023071E07190714070E0709070407FF061B
:10062000FA06F506F006EB06E606E106DC06D70656
:10063000D206CD06C806C306BF06BA06B506B00682
:10064000AC06A706A2069E069906950690068C069D
:10065000870683067E067A06750671066D066806AD
:10066000640660065C06570653064F064B064706AF
:1006700043063E063A06360632062E062A062606A9
:1006800022061E06350C2D0C250C1E0C160C0E0C0D
:10069000070CFF0BF80BF00BE90BE10BDA0BD30B9C
:1006A000CB0BC40BBD0BB60BAE0BA70BA00B990B62
:1006B000920B8B0B840B7D0B760B6F0B690B620B14
:1006C0005B0B540B4E0B470B400B3A0B330B2C0BB5
:1006D000260B1F0B190B120B0C0B060BFF0AF90A4A
:1006E000F30AEC0AE60AE00ADA0AD40ACD0AC70AD3
:1006F000C10ABB0AB50AAF0AA90AA30A9D0A970A4A
:10070000920A8C0A860A800A7A0A750A6F0A690AAE
:10071000640A5E0A580A530A4D0A480A420A3D0A08
:10072000370A320A2C0A270A210A1C0A170A110A58
:100730000C0A070A010AFC09F709F209ED09E709A1
:10074000E209DD09D809D309CE09C909C409BF09DD
:10075000BA09B509B009AB09A609A1099D0998090B
:1007600093098E098909850980097B09760972092F
:100770006D09680964095F095B09560951094D094A
:10078000480944093F093B09360932092E0929095C
:10079000250920091C09180913090F090B09070964
:1007A0000209FE08FA08F608F108ED08E908E5086C
:1007B000E108DD08D808D408D008CC08C808C40867
:1007C000C008BC08B808B408B008AC08A808A40859
:1007D000A0089D089908950891088D088908860841
:1007E00082087E087A08760873086F086B08670825
:1007F000640860085C085908550851084E084A0802
:10080000470843083F083C083808350831082E08D7
:100810002A08270847104010391032102B102410D6
:100820001D101710101009100210FC0FF50FEE0F1D
:10083000E80FE10FDA0FD40FCD0FC70FC00FBA0FBB
:10084000B30FAD0FA60FA00F9A0F930F8D0F870F49
:10085000800F7A0F740F6D0F670F610F5B0F550FCD
:100860004E0F480F420F3C0F360F300F2A0F240F48
:100870001E0F180F120F0C0F060F000FFA0EF40EBA
:10088000EF0EE90EE30EDD0ED70ED20ECC0EC60E25
:10089000C00EBB0EB50EAF0EAA0EA40E9F0E990E83
:1008A000930E8E0E880E830E7D0E780E720E6D0ED8
:1008B000670E620E5C0E570E520E4C0E470E420E25
:1008C0003C0E370E320E2C0E270E220E1D0E180E69
:1008D000120E0D0E080E030EFE0DF90DF30DEE0DAA
:1008E000E90DE40DDF0DDA0DD50DD00DCB0DC60DE4
:1008F000C10DBC0DB70DB20DAD0DA90DA40D9F0D11
:100900009A0D950D900D8B0D870D820D7D0D780D37
:10091000740D6F0D6A0D650D610D5C0D570D530D56
:100920004E0D490D450D400D3C0D370D320D2E0D70
:10093000290D250D200D1C0D170D130D0E0D0A0D83
:10094000050D010DFC0CF80CF40CEF0CEB0CE70C96
:10095000E20CDE0CD90CD50CD10CCD0CC80CC40C9F
:10096000C00CBB0CB70CB30CAF0CAB0CA60CA20CA0
:100970009E0C9A0C960C920C8D0C890C850C810C9B
:100980007D0C790C750C710C6D0C690C650C610C8F
:100990005D0C590C550C510C4D0C490C450C410C7F
:1009A0003D0C390C6A1862185A1853184B18431822
:1009B0003B1834182C1824181D1815180E18061872
:1009C000FF17F717EF17E817E017D917D217CA174D
:1009D000C317BB17B417AD17A5179E1797178F1717
:1009E000881781177A1772176B1764175D175617D8
:1009F0004F1747174017391732172B1724171D1792
:100A000016170F1708170117FA16F316ED16E61644
:100A1000DF16D816D116CA16C416BD16B616AF16EE
:100A2000A816A2169B1694168E16871680167A168E
:100A300073166D1666165F16591652164C16451625
:100A40003F16381632162B1625161F1618161216B4
:100A50000B160516FF15F815F215EC15E515DF1543
:100A6000D915D315CC15C615C015BA15B415AD15C5
:100A7000A715A1159B1595158F15891583157D153E
:100A8000771570156A1564155E15581553154D15B3
:100A9000471541153B1535152F15291523151D151E
:100AA000181512150C1506150015FB14F514EF1486
:100AB000E914E414DE14D814D214CD14C714C114EC
:100AC000BC14B614B114AB14A514A0149A14951444
:100AD0008F148A1484147F14791474146E14691496
:100AE00063145E14581453144E14481443143D14E4
:100AF000381433142D14281423141D14181413142B
:100B00000D1408140314FE13F813F313EE13E91372
:100B1000E413DE13D913D413CF13CA13C513C013B0
:100B2000BB13B513B013AB13A613A1139C139713E8
:100B300092138D13881311241FBECFEFD0E1DEBFB7
:100B4000CDBF11E0A0E0B1E0E8E7F4E200E00BBFC8
:100B500002C007900D92AA39B107D9F711E0AAE9AE
:100B6000B1E001C01D92AF3BB107E1F70E94980BC5
:100B70000C943A120C94000035980895359A089513
:100B80003D9808953D9A0895379A08953398379877
:100B9000089596B1987F892B86B9089597B182956B
:100BA000880F880F807C9F73982B97B908950E94B7
:100BB000C4050E94BC0586E00E94C90581E00E9430
:100BC000CE050E94C0051092A601339A789408952C
:100BD00097B18F71907E982B97B90895349A369A71
:100BE000089586B1807408951092A60197B18F710F
:100BF000907E982B97B9349A369A8091A6018823D3
:100C0000E1F324B135B1822F932F08950E94F405AA
:100C1000969587959695879508951F920F920FB692
:100C20000F9211248F9381E08093A6018F910F90F2
:100C30000FBE0F901F901895A79AAF98A59AAD98E0
:100C4000A69AAE980895882391F090E0AF9AE7E9CC
:100C5000FAE33197F1F700C00000AF98E7ECFFEA44
:100C60003197F1F700C000009F5F981778F308955F
:100C70006115710509F0A0C0009711F4D898089586
:100C80008130910511F4D99808958230910511F4BD
:100C9000DA9808958330910511F4DB980895843033
:100CA000910511F4DC9808958530910511F4DD98D3
:100CB00008958630910511F4DE98089587309105E6
:100CC00011F4DF9808958A30910511F4C0980895C1
:100CD0008B30910511F4C19808958C30910511F471
:100CE000C29808958D30910511F4C39808958E30FF
:100CF000910511F4C49808958F30910511F4C598A9
:100D000008958031910511F4C698089581319105B7
:100D100011F4C79808958431910511F4A8980895A5
:100D20008531910511F4A99808958631910511F442
:100D3000AA9808958731910511F4AB9808958831E8
:100D4000910511F4AC9808958931910511F4AD988D
:100D500008958A31910511F4AE9808958B3191056B
:100D600011F4AF9808958E31910511F4909808957B
:100D70008F31910511F4919808958032910511F405
:100D8000929808958132910511F4939808958232D2
:100D9000910511F4949808958332910511F4959872
:100DA00008958432910511F496980895853291053D
:100DB00009F0A0C097980895009711F4D89A089563
:100DC0008130910511F4D99A08958230910511F47A
:100DD000DA9A08958330910511F4DB9A08958430EE
:100DE000910511F4DC9A08958530910511F4DD9A8E
:100DF00008958630910511F4DE9A089587309105A3
:100E000011F4DF9A08958A30910511F4C09A08957B
:100E10008B30910511F4C19A08958C30910511F42D
:100E2000C29A08958D30910511F4C39A08958E30B9
:100E3000910511F4C49A08958F30910511F4C59A63
:100E400008958031910511F4C69A08958131910574
:100E500011F4C79A08958431910511F4A89A089560
:100E60008531910511F4A99A08958631910511F4FF
:100E7000AA9A08958731910511F4AB9A08958831A3
:100E8000910511F4AC9A08958931910511F4AD9A48
:100E900008958A31910511F4AE9A08958B31910528
:100EA00011F4AF9A08958E31910511F4909A089536
:100EB0008F31910511F4919A08958032910511F4C2
:100EC000929A08958132910511F4939A089582328D
:100ED000910511F4949A08958332910511F4959A2D
:100EE00008958432910511F4969A089585329105FA
:100EF00009F4979A08950F931F93082F182F80FFD6
:100F000007C080E090E061E070E00E94380606C013
:100F100080E090E060E070E00E94380611FF07C0BA
:100F200081E090E061E070E00E94380606C081E058
:100F300090E060E070E00E94380612FF07C082E097
:100F400090E061E070E00E94380606C082E090E028
:100F500060E070E00E94380613FF07C083E090E075
:100F600061E070E00E94380606C083E090E060E037
:100F700070E00E94380614FF07C088E190E061E04D
:100F800070E00E94380606C088E190E060E070E002
:100F90000E94380615FF07C089E190E061E070E02B
:100FA0000E94380606C089E190E060E070E00E948F
:100FB000380616FF07C08AE190E061E070E00E9409
:100FC000380606C08AE190E060E070E00E943806D2
:100FD00000233CF48BE190E061E070E00E94380671
:100FE00006C08BE190E060E070E00E9438061F913F
:100FF0000F9108951F93182F86E190E060E070E054
:101000000E943806812F0E947B0787E190E061E013
:1010100070E00E94380689EF90E00197F1F700C078
:10102000000087E190E060E070E00E94380689EF00
:1010300090E00197F1F700C000001F91089581E052
:101040000E94FA070895813029F4862F80580E9463
:10105000FA070895823021F4862F80540E94FA07FF
:10106000089586E190E060E070E00E94380687E134
:1010700090E060E070E00E94380687E893E1019715
:10108000F1F700C0000080E30E94FA0781EE94E0CF
:101090000197F1F700C0000080E30E94FA0789EF92
:1010A00090E00197F1F700C0000080E30E94FA078A
:1010B00083EC99E00197F1F700C0000088E30E94FB
:1010C000FA078CE00E94FA0781E00E94FA0786E0A6
:1010D0000E94FA0708951F93182F86E190E061E0BF
:1010E00070E00E943806812F0E947B0787E190E024
:1010F00061E070E00E94380689EF90E00197F1F717
:1011000000C0000087E190E060E070E00E943806D7
:1011100089EF90E00197F1F700C000001F9108955A
:10112000CF93DF93EC018881882331F021960E94D0
:101130006B0889918823D9F7DF91CF9108958CE1CD
:101140000E94FA07089588E10E94FA070895CF9354
:10115000DF93C82FD0E0CE0180FF07C088E190E088
:1011600061E070E00E94380606C088E190E060E02F
:1011700070E00E943806C1FF07C089E190E061E09D
:1011800070E00E94380606C089E190E060E070E0FF
:101190000E943806C2FF07C08AE190E061E070E07B
:1011A0000E94380606C08AE190E060E070E00E948C
:1011B0003806C3FF07C08BE190E061E070E00E9459
:1011C000380606C08BE190E060E070E00E943806CF
:1011D000DF91CF9108951F93182F86E190E060E092
:1011E00070E00E943806812F0E94A70887E190E0F6
:1011F00061E070E00E94380689EF90E00197F1F716
:1012000000C0000087E190E060E070E00E943806D6
:1012100089EF90E00197F1F700C000001F91089559
:1012200080E00E94EB0881E00E94EB0808951F9384
:10123000813061F4162F1058812F82958F700E9493
:10124000EB08812F8F700E94EB080DC0823059F49B
:10125000162F1054812F82958F700E94EB08812FDA
:101260008F700E94EB081F91089580E00E94A708EC
:1012700087E893E10197F1F700C0000083E00E9446
:10128000EB0881EE94E00197F1F700C0000083E0E5
:101290000E94EB088DEB9AE00197F1F700C0000087
:1012A00083E00E94EB0882E00E94EB0882E00E944B
:1012B000EB0888E00E94EB0880E00E94EB088CE0DD
:1012C0000E94EB0880E00E94EB0886E00E94EB0899
:1012D00008951F93182F86E190E061E070E00E946E
:1012E0003806812F82958F700E94A70887E190E0D1
:1012F00061E070E00E94380689EF90E00197F1F715
:1013000000C0000087E190E060E070E00E943806D5
:1013100089EF90E00197F1F700C00000812F8F70F6
:101320000E94A70887E190E061E070E00E94380623
:1013300089EF90E00197F1F700C0000087E190E0AD
:1013400060E070E00E94380689EF90E00197F1F7C5
:1013500000C000001F910895CF93DF93EC018881B6
:10136000882331F021960E94690989918823D9F751
:10137000DF91CF91089581E00E94EB088CE00E94FC
:10138000EB08089581E00E94EB0888E00E94EB08DA
:10139000089582E060E00E94CE0B80E091E00E9420
:1013A000A00C82E062E00E94CE0B8FE091E00E94F0
:1013B000A00C82E063E00E94CE0B84E191E00E94E9
:1013C000A00C82E065E00E94CE0B8AE291E00E94D0
:1013D000A00C82E066E00E94CE0B85E391E00E94C3
:1013E000A00C8FEB97E2A9E081509040A040E1F77C
:1013F00000C000000E94E40B0895F8940E941C06AF
:101400000E94D7058FE996E8A1E081509040A04066
:10141000E1F700C000000E94080C8AE00E946A0CFC
:1014200081E00E947B0C82E00E9423068FE996E80F
:10143000A1E081509040A040E1F700C000000E9470
:10144000E40B0E94C90981E00E9423067894089564
:101450002F923F924F925F926F927F928F929F92C4
:10146000AF92BF92CF92DF92EF92FF920F931F93B2
:10147000CF93DF930E94A80EA1E6B0E08C918E7FFF
:101480008C93E2E6F0E080818E7F80838C918D7F6B
:101490008C9380818D7F80838C918B7F8C938081D6
:1014A0008B7F8083CC24EE24FF2410E00F2EFAE003
:1014B0004F2E5524F02DC7EAD1E00F2EF2E46F2E07
:1014C000F1E07F2EF02D0F2EF5E52F2EF1E03F2ECF
:1014D000F02D8091A2019091A3018E159F0508F433
:1014E0000DC18091A2019091A3010F2EF4E6EF2E81
:1014F000FF24F02DE80EF91E80E00E94F4055C0147
:1015000081E00E940606082F82E00E940606D82E7F
:10151000C5010E94DE0E5C01802F0E94FF0E882E06
:101520008D2D0E940A0F982E0E943509C501B20127
:101530000E94240F062FD72EB82EA92E8DB79EB746
:1015400008970FB6F8949EBF0FBE8DBFEDB7FEB7DC
:101550003196ADB7BEB71296DC93CE9311977382D6
:10156000628264837583B682A7820E945A0F8DB708
:101570009EB708960FB6F8949EBF0FBE8DBF81E050
:1015800061E00E941709CE010E94AC0900D000D092
:1015900000D0EDB7FEB73196ADB7BEB71296DC936B
:1015A000CE93119733822282848215820E945A0F31
:1015B0008DB79EB706960FB6F8949EBF0FBE8DBF2F
:1015C00082E061E00E941709CE010E94AC0900D0C0
:1015D00000D000D0EDB7FEB73196ADB7BEB71296CA
:1015E000DC93CE93119780E691E09383828394827B
:1015F00015820E945A0FADB7BEB716960FB6F89473
:10160000BEBF0FBEADBF82E06AE00E941709CE01E7
:101610000E94AC098DB79EB708970FB6F8949EBF8D
:101620000FBE8DBFEDB7FEB73196ADB7BEB7129600
:10163000DC93CE931197738262820483D582B68243
:10164000A7820E945A0F8DB79EB708960FB6F894DE
:101650009EBF0FBE8DBF82E061E00E94CE0BCE0127
:101660000E94A00C00D000D000D0EDB7FEB731969C
:10167000ADB7BEB71296DC93CE9311978BE691E08F
:1016800093838283848215820E945A0FADB7BEB7BE
:1016900016960FB6F894BEBF0FBEADBF82E063E0F2
:1016A0000E94CE0BCE010E94A00C00D000D000D032
:1016B000EDB7FEB73196ADB7BEB71296DC93CE93B9
:1016C00011978AE791E093838283948215820E9426
:1016D0005A0FADB7BEB716960FB6F894BEBF0FBE81
:1016E000ADBF82E065E00E94CE0BCE010E94A00C4F
:1016F000C394BC2DB53029F0BA3039F0112331F044
:1017000001C011E0AD9A85B3E4CECC24AD9885B389
:1017100010E0DFCE8FEF81BB84BB0E94350981E0F2
:1017200061E00E94170989E891E00E94AC090895E0
:101730000E948A0B0E94FD090E94280AFFCFDF93B6
:10174000CF930F92CDB7DEB7698393989098882393
:1017500019F0919A82B302C0919882B3909A87E06F
:1017600090E0FE0131969098208130E0082E02C072
:10177000359527950A94E2F720FF03C0919A22B38A
:1017800002C0919822B3909A01972FEF8F3F920752
:1017900051F7939A0F90CF91DF9108951F93182FCF
:1017A0006F70606B80E00E949F0B612F6F7080E014
:1017B0000E949F0B612F62956F706770606180E07F
:1017C0000E949F0B1F910895FF920F931F9380E03B
:1017D00060E00E94CE0B80E06EEA0E949F0B00E06A
:1017E0000F2EF0E6FF2EF02D09C081E060E00E9490
:1017F0009F0B1150D1F70F5F093011F01F2DF5CF5E
:1018000080E06FEA0E949F0B1F910F91FF90089557
:101810008B9A939A899A9198889A90988A9A929892
:10182000939883ED90E30197F1F700C00000929A3E
:1018300080E063E20E949F0B80E060E90E949F0BC2
:1018400080E064EA0E949F0B80E06FE20E949F0BA1
:1018500080E060E40E949F0B80E060EB0E949F0BA1
:1018600080E060E10E949F0B80E060E00E949F0B9F
:1018700080E068EC0E949F0B80E061EA0E949F0B71
:1018800080E06CEA0E949F0B80E067E00E949F0B63
:1018900080E06FEA0E949F0B0E94E40B80E067EA01
:1018A0000E949F0B8FE996E8A1E081509040A040F4
:1018B000E1F700C0000080E066EA0E949F0B8FE91C
:1018C00096E8A1E081509040A040E1F700C0000000
:1018D000089508951F93182F80E061E20E949F0BE6
:1018E000612F606880E00E949F0B80E060E20E94B0
:1018F0009F0B1F91089508950895089508950895E0
:101900000F931F93CF93DF9305E0809F80011124F5
:10191000E801C451D0400F501040FE016491660FA1
:1019200081E00E949F0B2196C017D107B1F781E09B
:1019300060E00E949F0BDF91CF911F910F9108955E
:10194000CF93DF93EC0180E06EEA0E949F0B8881C9
:10195000882331F021960E94800C89918823D9F741
:1019600080E06FEA0E949F0BDF91CF91089588235A
:10197000C4F08095282F30E0220F331F2F5F3040B6
:1019800070E0269FC001279F900D369F900D112477
:10199000892F992781509F4F969587958F5F8095C6
:1019A0000895282F30E0220F331F2F5F304070E062
:1019B000269FC001279F900D369F900D1124892FDF
:1019C000992781509F4F969587958F5F08951F9215
:1019D0000F920FB60F920BB60F921124CF92DF9297
:1019E000EF92FF921F932F933F934F935F936F93C9
:1019F0007F938F939F93AF93BF93EF93FF938091C8
:101A00009E0190919F0123E08C31920730F08091EC
:101A1000A001805F8093A0012EC080919E019091D3
:101A20009F0122E08435920730F08091A001885F09
:101A30008093A00120C080919E0190919F0121E0A0
:101A40008C38920730F08091A0018C5F8093A001C8
:101A500012C080919E0190919F01843C910530F0CD
:101A60008091A0018E5F8093A00105C08091A001AC
:101A70008F5F8093A00180919E0190919F0121E052
:101A80008F3E920700F1E091A001F0E0E459FD4F94
:101A9000E491F0E0FBBDEABDE091A001EC5AF0E07A
:101AA000E459FD4FE491F0E0F9BDE8BDE091A001FB
:101AB000E655F0E0E459FD4FE491F0E0F093790051
:101AC000E093780077C080919E0190919F018036CD
:101AD000910548F5E091A001F0E0E459FD4F8491B3
:101AE00069E10E94B70C90E09BBD8ABDE091A00126
:101AF000EC5AF0E0E459FD4F849169E10E94B70C83
:101B000090E099BD88BDE091A001E655F0E0E45970
:101B1000FD4F849169E10E94B70C90E090937900A9
:101B20008093780047C020919E0130919F01E09101
:101B3000A001F0E0E459FD4F14912F55304046EEDE
:101B400050E00E94150F20E931E040E050E00E9493
:101B5000380F0F2EF9E1CF2EF0E0DF2EF0E0EF2E60
:101B6000F0E0FF2EF02DC20ED31EE41EF51E812FD5
:101B70006C2D0E94B70C90E09BBD8ABDE091A00146
:101B8000EC5AF0E0E459FD4F84916C2D0E94B70CA3
:101B900090E099BD88BDE091A001E655F0E0E459E0
:101BA000FD4F84916C2D0E94B70C90E090937900CA
:101BB00080937800FF91EF91BF91AF919F918F91AA
:101BC0007F916F915F914F913F912F911F91FF9066
:101BD000EF90DF90CF900F900BBE0F900FBE0F9045
:101BE0001F9018951F920F920FB60F920BB60F927F
:101BF00011242F933F938F939F93EF93FF93209103
:101C00009E0130919F0180919C0190919D01281728
:101C10003907B8F41092A4018091A5018F5F8093D9
:101C2000A50190919701891790F11092A5018091DB
:101C30009E0190919F01019690939F0180939E0138
:101C400026C020919E0130919F0180919C0190912E
:101C50009D0182179307B8F41092A5018091A40109
:101C60008F5F8093A40190919801891780F0109262
:101C7000A40180919E0190919F01019790939F01F3
:101C800080939E0104C01092A5011092A40180913E
:101C90009E0190919F01009781F1E0919E01F0914A
:101CA0009F01EE0FFF1FE459FC4F8591949101971E
:101CB00090938700809386008091A101882391F5FD
:101CC0008FB580688FBD8FB580628FBD8FB58860FE
:101CD0008FBD81E08093A101EAE8F0E08081887FF8
:101CE00081608083ECE7F0E0808180618083EDE7B4
:101CF000F0E080818061808315C08FB58F778FBDC4
:101D00008FB58F7D8FBD8FB5877F8FBD1092A1015D
:101D1000EAE8F0E08081887F8083EDE7F0E0808171
:101D20008F7E80838091A2019091A3010196909370
:101D3000A3018093A201FF91EF919F918F913F9119
:101D40002F910F900BBE0F900FBE0F901F90189504
:101D5000BD9A8FB58F778FBDBE9A8FB58F7D8FBDA2
:101D6000BF9A8FB5877F8FBD8091A00190E09BBD0A
:101D70008ABD8091A0018C5A90E099BD88BD809168
:101D8000A001865590E0909379008093780081E0DF
:101D90008FBD8EB5887F81608EBD83E080938B0080
:101DA00088E180938A008CE783BD8BE085BD86B790
:101DB000806886BF87B7806887BF08958E30910599
:101DC00028F410929D0110929C0110C023E0823FE4
:101DD000920730F40D9790939D0180939C0106C06B
:101DE00084EE93E090939D0180939C0120919C014F
:101DF00030919D012C5F3F4F822F932F08958823B0
:101E000019F08093970103C081E08093970180913E
:101E100097010895882319F08093980103C081E009
:101E200080939801809198010895539FC001429F2B
:101E3000B001529F700D811D1124911D349F700DB2
:101E4000811D1124911D0895AA1BBB1B51E107C0E0
:101E5000AA1FBB1FA617B70710F0A61BB70B881F3A
:101E6000991F5A95A9F780959095BC01CD010895C9
:101E7000A1E21A2EAA1BBB1BFD010DC0AA1FBB1F8E
:101E8000EE1FFF1FA217B307E407F50720F0A21B00
:101E9000B30BE40BF50B661F771F881F991F1A946D
:101EA00069F760957095809590959B01AC01BD0197
:101EB000CF0108950F931F93DF93CF93CDB7DEB774
:101EC0002E970FB6F894DEBF0FBECDBF0D891E89C9
:101ED00086E08C831A8309838FEF9FE79E838D832F
:101EE0009E01275E3F4FCE0101966F89788DA90133
:101EF0000E948A0FEF81F885E00FF11F10822E9665
:101F00000FB6F894DEBF0FBECDBFCF91DF911F910A
:101F10000F9108952F923F924F925F926F927F920E
:101F20008F929F92AF92BF92CF92DF92EF92FF92E9
:101F30000F931F93DF93CF93CDB7DEB72C970FB6D8
:101F4000F894DEBF0FBECDBF6C011B018A01FC01FE
:101F500017821682838181FFD1C12E010894411C12
:101F6000511CF6019381F10193FD859193FF8191BD
:101F70001F01882309F4BEC1853239F493FD859190
:101F800093FF81911F01853229F490E0B6010E94F0
:101F9000B011E7CFEE24FF2420E02032B0F48B32E2
:101FA00069F08C3228F4803251F0833271F40BC026
:101FB0008D3239F0803349F421602CC022602460D6
:101FC00029C0286027C0206125C027FD2CC0382FDC
:101FD00030533A3098F426FF08C08E2D880FE82E33
:101FE000EE0CEE0CE80EE30E15C08F2D880FF82EC8
:101FF000FF0CFF0CF80EF30E20620CC08E3221F4A1
:1020000026FD78C1206406C08C3611F4206802C019
:10201000883649F4F10193FD859193FF81911F0169
:10202000882309F0BACF982F9554933018F0905226
:10203000933028F40C5F1F4FFFE3F9830DC0833604
:1020400031F0833771F0833509F060C022C0F801A8
:10205000808189830E5F1F4F420171E0A72EB12C52
:1020600016C062E0662E712C600E711EF801808031
:10207000918026FF03C06E2D70E002C06FEF7FEFEE
:10208000C4012C870E94A5115C0183012C852F7748
:1020900017C052E0652E712C600E711EF801808011
:1020A000918026FF03C06E2D70E002C06FEF7FEFBE
:1020B000C4012C870E949A115C012C852068830141
:1020C00023FD20C008C080E290E0B6012C870E946A
:1020D000B011FA942C858F2D90E0A816B90698F3CC
:1020E00011C0F40127FD859127FF81914F0190E0F8
:1020F000B6012C870E94B0112C85F110FA94089437
:10210000A108B108A114B10461F7F1C0843611F03F
:10211000893649F527FF08C0F80160817181828105
:1021200093810C5F1F4F09C0F8016081718188277E
:1021300077FD8095982F0E5F1F4F4FE6B42EB22289
:1021400097FF09C090958095709561957F4F8F4F4F
:102150009F4FF0E8BF2AA2012AE030E00E94DC1184
:10216000782E741845C0853731F43FEEB32EB22275
:102170002AE030E025C099EFB92EB2228F36C1F0A7
:10218000803720F4883509F0B5C00DC0803721F0C4
:10219000883709F0AFC002C020E1B22AB4FE0BC0FC
:1021A00084E0B82A08C0B4FE09C0E6E0BE2A06C032
:1021B00028E030E005C020E130E002C020E132E05C
:1021C000B7FE08C0F80160817181828193810C5F44
:1021D0001F4F07C0F8016081718180E090E00E5FC1
:1021E0001F4FA2010E94DC11782E7418FFE7BF2256
:1021F000B6FE0BC02EEFB2227E1438F4B4FE07C038
:10220000B2FC05C08FEEB82202C0A72C01C0AE2CD4
:102210008B2D90E0B4FE0DC0FE01E70DF11D208175
:10222000203319F4E9EEBE2209C0A394B2FE06C021
:1022300004C086789070009709F0A3948B2C9924A1
:10224000B3FC14C0B0FE0FC0AF1428F4E72CEF0CA1
:10225000EA18AF2C08C0E72C06C080E290E0B60177
:102260000E94B011A394AF14C0F304C0AF1410F4D3
:10227000FA1801C0FF2484FE0FC080E390E0B6018D
:102280000E94B01182FE1FC081FE03C088E590E06D
:1022900010C088E790E00DC0C40186789070009768
:1022A00091F081FC02C080E201C08BE2B7FC8DE2BC
:1022B00090E0B6010E94B01106C080E390E0B60144
:1022C0000E94B011EA947E14C0F37A94F201E70DF3
:1022D000F11D808190E0B6010E94B0117720A9F72E
:1022E00006C080E290E0B6010E94B011FA94FF208F
:1022F000C1F737CEF6012681378102C02FEF3FEFBD
:10230000C9012C960FB6F894DEBF0FBECDBFCF919A
:10231000DF911F910F91FF90EF90DF90CF90BF90D2
:10232000AF909F908F907F906F905F904F903F9075
:102330002F900895FC010590615070400110D8F76E
:10234000809590958E0F9F1F0895FC0161507040FD
:1023500001900110D8F7809590958E0F9F1F0895DA
:102360000F931F93CF93DF938C01EB018B8181FF40
:102370001BC082FF0DC02E813F818C819D8128175B
:10238000390764F4E881F9810193F983E88306C091
:10239000E885F985802F0995009731F48E819F811A
:1023A00001969F838E8302C00FEF1FEFC801DF915C
:1023B000CF911F910F910895FA01AA27283051F16A
:1023C000203181F1E8946F936E7F6E5F7F4F8F4F66
:1023D0009F4FAF4FB1E03ED0B4E03CD0670F781FC5
:1023E000891F9A1FA11D680F791F8A1F911DA11DAA
:1023F0006A0F711D811D911DA11D20D009F46894E3
:102400003F912AE0269F11243019305D3193DEF68A
:10241000CF010895462F4770405D4193B3E00FD040
:10242000C9F7F6CF462F4F70405D4A3318F0495D2B
:1024300031FD4052419302D0A9F7EACFB4E0A6950E
:102440009795879577956795BA95C9F70097610530
:10245000710508959B01AC010A2E06945795479586
:1024600037952795BA95C9F7620F731F841F951F7B
:08247000A01D0895F894FFCFB0
:1024780020205350574D2074657374212121006228
:1024880079203A004E6F757262616B687368202616
:1024980020656C6173612E697200436F707972698F
:1024A8006768743A00202020204F5A48414E204B3C
:1024B80044004652513A20253033642E2530316489
:1024C80020487A200041433A253033645363200082
:1024D80044453A25303364536320004143433A204E
:1024E800253033642073656320004445433A202532
:1024F800303364207365632000456C6173612E6915
:0A2508007220546573740001010095
:00000001FF
